:020000040000FA
:0600000036EF11F01200C2
:0600080004EF08F01200F5
:060018000CEF08F01200DD
:0610000036EF11F01200B2
:0610080069EF0CF012007C
:06101800BAEF0CF012001B
:06102A000200A4220000F8
:101030007D00000001000000A022000079000000F7
:0410400004000000A8
:0C104400D9CFE6FFE1CFD9FFE6526A6A7F
:10105000686A6B8E6B886B866B846B826B80698C25
:10106000698A698869866994698269806D8C6D9CDA
:101070006E6ADF6ADF50146E156A040E145C000E8F
:10108000155829E2DF50040DF3CFE9FFF4CFEAFF52
:10109000000EE926040EEA22EF6ADF50040DF3CFBA
:1010A000E9FFF4CFEAFF000EE926040EEA22EE5231
:1010B000EF6ADF50040DF3CFE9FFF4CFEAFF000E33
:1010C000E926040EEA22020EE926000EEA22EE6A62
:1010D000ED6ADF2ACFD77088709670847082709026
:1010E00068A602D06896FCD70001696B626B636BDF
:1010F000646B6D986D6B00017D6BDF6A410EDF5C88
:1011000010E2DF50EA6A200FE96E040EEA22EF6A6D
:10111000DF50EA6A610FE96E040EEA22EF6ADF2A05
:10112000EDD7E552E552E7CFD9FF1200D9CFE6FF60
:10113000E1CFD9FFE65200017D5110E16D6A696A85
:101140006DB602D06D86FCD70001010E7D6F6F9EDB
:101150006F9C6F886F966F846F926F907D0508E12A
:101160006DBA06D0686A696A69806988020E7D6F07
:101170006850040B04E06950040B01E05AD86DB2CA
:1011800053D06850010B16E06950010B13E05ADF91
:101190000001040E7D6F0401100E026F040E036F38
:1011A000080E016F009D009B009900870085009349
:1011B0000091008F6850100B04E06950100B01E0A3
:1011C0003FD86850400B04E06950400B01E0689C38
:1011D0006850200B04E06950200B01E035D86850BE
:1011E000020B04E06950020B01E06A6A040E000180
:1011F0007D5D01E219D069A617D0DF6A040EDF5CBD
:1012000013E268A610D06C50400B0AE16C50200B22
:1012100007E16C50100B04E16C50080B01E128D879
:101220006896DF2AEBD700D0E552E552E7CFD9FF29
:1012300012006D92699468A402D06894FCD71200E1
:10124000698468986D82120070A010D0040100516A
:10125000800B0BE00451800B08E0009D009B00997F
:101260000087008500930091008F7090689A1200AB
:101270006CB40BD0040100513C0BE842E8420D086D
:1012800002E106D801D043D902D06CB448D912008B
:101290000401046B00016E6B6C6B6A6B6B6B696BAA
:1012A00003D898D81AEF0AF004011051600BE842F5
:1012B000E842E842E842E842000901E08AD0050E2F
:1012C000115D07E10001010E696F0001080E7D6FDD
:1012D00080D0060E115D57E1800E105D53E10001D4
:1012E000010E696F0401130509E10001E80E656F45
:1012F000200E666F120E6A6F6B6B44D0020E135D88
:1013000022E11251F66EF76AD890F636F736A60E3D
:10131000F626210EF7220900F5CF65F00A00F5CF79
:1013200066F065C067F066C068F0020E0001F76AFB
:101330006725F66E6851F7220900F5CF6AF00A00BA
:10134000F5CF6BF01FD0030E135D1AE11251F66E4C
:10135000F76AD890F636F736A80EF626210EF72251
:101360000900F5CF65F00A00F5CF66F065C0F6FF1D
:1013700066C0F7FF0800F55000016A6F6B6B02D082
:101380000001696B26D0090E115D23E10001010EF9
:10139000696F12C46DF00401125104E10001100ED6
:1013A0007D6F17D00001200E7D6F7188718671846A
:1013B000718271900401089F088D0C9F0C8D400E66
:1013C000E66E210EE66E040EE66E4FDAE552E55249
:1013D000E5521200040110511F0B010801E029D051
:1013E000060E115D26E1210E135D0DE100016D0574
:1013F00009E10C0E656F210E666F090E6A6F6B6B4B
:10140000010E696F16D0220E135D0DE100016D050E
:1014100009E1890E656F210E666F1D0E6A6F6B6B99
:10142000010E696F06D0230E135D03E10001010E6A
:10143000696F12006D98000169511BE1620501E1BD
:1014400017D00401080E016F100E026F040E036F17
:10145000009D009B00990087008500930091008FFC
:10146000049D049B04990497048504930491048FBC
:101470004DD062514BE1040110AF2DD000016A51F3
:101480000401165D00016B510401175904E216C4F2
:101490006AF017C46BF0FDD80001010E6C6F0401F7
:1014A000080E016F100E026F040E036F009D009B6B
:1014B00000990097009500930091008F180E066F19
:1014C000040E076F048D049B04990487049504930C
:1014D0000491048F1BD00001020E6C6F0401056B98
:1014E000048D049B04990487049504930491048F4C
:1014F000080E016F180E026F040E036F008D009B23
:1015000000990087009500930091008F1200020E51
:1015100000016C5D02E14FD801D026D91200D9CF6D
:10152000E6FFE1CFD9FFE65204010451400B01E090
:10153000010EDF6E080E00017D5D0AE112C46EFF30
:101540006E50000803E2100E7D6F02D0040E7D6F16
:1015500000016C052AE10401180E066F040E076FE6
:1015600098D8020E00016E5D0AE10401049D049BFF
:1015700004990497048504930491048F15D0DF50D7
:101580000AE10401048D049B0499048704950493E3
:101590000491048F09D00401049D049B04990487DD
:1015A000049504930491048F01D0DED8E552E552EE
:1015B000E7CFD9FF1200D9CFE6FFE1CFD9FF020E66
:1015C000E12601C4DFFFDFCF14F014500001635D9A
:1015D000000E645903E263C0DFFF09D0DF50146ED0
:1015E000156A1450635D636F15506459646F010E82
:1015F000DB6ADF50F36E010EDBCFF4FFF350F45CD7
:1016000016E2010EDB50EA6A180FE96E040EEA22B8
:10161000EF50E66E60C0E9FF61C0EAFF602B000E8C
:101620006123E552E750EF6E010EDB2AE2D7000E90
:10163000D8806355000E64551BE20401080E016F4B
:10164000180E026F040E036F00BD09D0008D009BC1
:1016500000990087009500930091008F08D0009DAD
:10166000009B00990087009500930091008F07D0A0
:101670000401100E026F040E036F0001626B020E74
:10168000E15C02E2E16AE552E16EE552E7CFD9FFA3
:101690001200D9CFE6FFE1CFD9FF040EE126000109
:1016A000080E6A5D000E6B590EE26AC0DEFF6BC069
:1016B000DDFF6E5103E1010E6E6F04D06E0502E195
:1016C000020E6E6F03D0080EDE6EDD6A0401049315
:1016D0000491010EDB500413DFCF05F4000EDB5044
:1016E00000016A5F010EDB506B5BD950020FE96E9F
:1016F000DACFEAFF180EEE6E040EED6ED9CFE9FFD9
:10170000DACFEAFFEE50ED1025E065C0F6FF66C0C7
:10171000F7FF0800F550E66E020EDBCFE9FF030E7F
:10172000DBCFEAFFE552E750EF6E020EDBCFE9FFB9
:10173000DB2A030EDBCFEAFF01E3DB2A65C0F6FFFD
:1017400066C0F7FF652B000E6623DF06010E01E27F
:10175000DB06D4D7040EE15C02E2E16AE552E16EF9
:10176000E552E7CFD9FF1200D9CFE6FFE1CFD9FF8D
:10177000E652020E00016C5D36E16D50100B33E055
:1017800004010151146E156A080E141801E1155078
:101790002AE100513C0BE842E8420D0824E10051E7
:1017A000800B21E1100E026F040E036FDF6ADF5021
:1017B000146E156A080E145C000E155813E2DF5003
:1017C000EA6A180FE96E040EEA22EF50E66EDF5067
:1017D000EA6A100FE96E040EEA22E552E750EF6E56
:1017E000DF2AE5D719D000016C6B0401080E016FE8
:1017F000100E026F040E036F009D009B009900877E
:10180000008500930091008F049F049D049B049920
:1018100004970495049304910001620501E1626B51
:10182000E552E552E7CFD9FF120068A6FED70401C2
:1018300008BF0AD0400EE66E210EE66E040EE66E7C
:1018400014D8E552E552E552120068A6FED704010D
:101850000CBF0AD0400EE66E620EE66E040EE66E17
:101860001ED8E552E552E5521200D9CFE6FFE1CF8E
:10187000D9FF0401087D089B0899088708950893FB
:101880000891088FFC0EDBCF09F4FD0EDBCF0AF4C4
:10189000FE0EDBCF0BF4E552E7CFD9FF1200D9CF14
:1018A000E6FFE1CFD9FF04010C7D0C9B0C990C875E
:1018B0000C950C930C910C8FFC0EDBCF0DF4FD0EF0
:1018C000DBCF0EF4FE0EDBCF0FF4E552E7CFD9FFEE
:0218D000120004
:0E18D200DACFE4FFE2CFDAFFE9CFE4FFEACF9E
:1018E000E4FFF6CFE4FFF7CFE4FFF5CFE4FFF3CF5B
:1018F000E4FFF4CFE4FFFACFE4FF00EE00F0140EB3
:10190000E80403E3EECFE4FFFBD700EE14F0050E8E
:10191000E80403E3EECFE4FFFBD7E652F2A402D0E3
:10192000F294C6D99EA002D09E90A1D8E55200EEB6
:1019300018F0050EE80403E3E5CFEDFFFBD700EE5A
:1019400013F0140EE80403E3E5CFEDFFFBD7E5CF7A
:10195000FAFFE5CFF4FFE5CFF3FFE5CFF5FFE5CFE5
:10196000F7FFE5CFF6FFE5CFEAFFE5CFE9FFE5CFEB
:10197000DAFF1100D8CFE4FFE0CFE4FFE46EDACF66
:10198000E4FFE2CFDAFFE652E552E5CFDAFFE550B9
:10199000E5CFE0FFE5CFD8FF100022EC08F005D836
:1019A00096EC08F05AD8FCD71200D59ECD90CA9478
:1019B000B19092809282928492869288928A968046
:1019C00096929694949094929494959095929594DE
:1019D0009596949C949E9598959A959C959E939097
:1019E00093929394939693988198819681948192FF
:1019F0008190839E839C839A8398829E829C839607
:101A0000839483928390829482928492849482902D
:101A1000C29AC298C296C294C19AC198C186C18422
:101A2000C182C190C09EC08AC098C086C084C09246
:101A3000C080C280D08EF28EF28AF184D59CD59A75
:101A4000D596D584D592D5809D809F80CD9ACD881E
:101A5000CD96CD92D58ECD801200200E00017D5DF9
:101A600004E115EC0CF091D801D0CBD81200200E77
:101A700000017D5D05E121C4E6FF2AD8E55227D0AB
:101A8000C282C2B2FED7C4CF07F01AEC0FF005C075
:101A900014F006C015F007C016F008C017F06A0E63
:101AA0000A6EBC0E0B6E340E0C6E3F0E0D6E14C023
:101AB00005F015C006F016C007F017C008F02BECB3
:101AC0000FF098EC0FF00750E66E02D8E5521200C6
:101AD000D9CFE6FFE1CFD9FF040EE126FE0EDBCF22
:101AE00018F018C007F01AEC0FF005C014F006C08B
:101AF00015F007C016F008C017F0C30E0A6EF50EF9
:101B00000B6E880E0C6E400E0D6E14C005F015C0E5
:101B100006F016C007F017C008F02BEC0FF0BFEC72
:101B20000FF0020E06C0DBFF030E07C0DBFF81884B
:101B3000790EDE6EDD68DECF14F0DDCF15F0020E1B
:101B4000DBCF16F0030EDBCF17F015501718E8AEF9
:101B500002D0173404D01650145C175015580AE2FE
:101B6000010EE66E44EC11F0E552DF2A010E01E3AE
:101B7000DB2AE1D78198040EE15C02E2E16AE552DA
:101B8000E16EE552E7CFD9FF12000401225105E1D1
:101B9000819681948192819016D0220505E18186FB
:101BA0008194818281900FD0020E225D05E18196A1
:101BB00081848192818007D0030E225D04E18196A9
:101BC000818481828190235105E1839E839C839A45
:101BD000839816D0230505E1838E839C838A83989E
:101BE0000FD0020E235D05E1839E838C839A838848
:101BF00007D0030E235D04E1839E838C838A839840
:101C000012008050020B08E08050080B05E081961E
:101C100081948192819020D08050020B08E1805005
:101C2000080B05E0818681948182819015D08050D7
:101C3000020B08E08050080B05E1819681848192B7
:101C400081800AD08050020B07E18050080B04E12C
:101C500081968184818281908050040B08E08050BD
:101C6000100B05E0839E839C839A839820D080503C
:101C7000040B08E18050100B05E0838E839C838A5F
:101C8000839815D08050040B08E08050100B05E1BC
:101C9000839E838C839A83880AD08050040B07E14B
:101CA0008050100B04E1839E838C838A83981200FA
:101CB000200E00017D5D16E10401240505E1010E01
:101CC0000001796F7A6B0DD0020E245D05E1020EE2
:101CD0000001796F7A6B05D0245103E10001796B23
:101CE0007A6B11D084B005D0010E0001796F7A6B48
:101CF0000AD080BA05D0020E0001796F7A6B03D04A
:101D00000001796B7A6B000179517A1102E191D06F
:101D100090D0010E791901E17A5144E17B517C1197
:101D200009E1828E829C838683948392839082943D
:101D3000829229D0010E7B1901E17C5109E1829E3A
:101D4000829C8396839483828390828482921BD028
:101D5000020E7B1901E17C5109E1829E828C8396FF
:101D6000838483928390829482920DD0030E7B1998
:101D700001E17C5108E1829E829C83968394839248
:101D80008380829482827B2B000E7C23040E7CAFA6
:101D900002D0D89003D07B5D000E7C5902E37B6BB0
:101DA0007C6B47D0020E791901E17A5142E1010EB4
:101DB0007B1901E17C5109E1828E829C83868394A8
:101DC000839283908294829227D0020E7B1901E144
:101DD0007C5109E1829E829C8396839483828390C6
:101DE0008284829219D0030E7B1901E17C5109E1B2
:101DF000829E828C83968384839283908294829243
:101E00000BD07B517C1108E1829E829C8396839447
:101E100083928380829482827B07000E7C5B7C3578
:101E200004E37B51FF08FF0E7C5503E3030E7B6F39
:041E30007C6B1200B5
:0C1E34000F9E05D00F9E07AE02D0076C79
:101E40000F8E07C001F0006A136A126A860E026ED6
:101E5000036A0AEF10F00F6A46EC10F05EEC10F027
:101E60000FB6EEEF0FF00FA205D00FB8EEEF0FF0A8
:101E7000F5EF0FF00FAA05D00FB0EEEF0FF0F5EF72
:101E80000FF00FB002D00FA802D001EF10F0036ADC
:101E90000D500824026EE86A03227E0E025EE86A94
:101EA000035A126A136A006A016A0C500702F4CFDF
:101EB00001F0F3CF00F00B500702F3501326F4505B
:101EC0000022000E01220C500602F3501326F4509B
:101ED0000022000E01220A500702F3501226F4508D
:101EE0001322000E002201220B500602F35012268C
:101EF000F4501322000E002201220C500502F35070
:101F00001226F4501322000E002201220A5006026B
:101F1000F4501226000E1322002201220B5005025B
:101F2000F4501226000E1322002201220AEF10F0B4
:101F30000F6A46EC10F00FB6A2EF0FF00FA20AD016
:101F40000FB403D07F0E076E19D0800E076E16D027
:101F5000076A14D00FB0FCD7870E0860F1D77E0E49
:101F60000864F6D7860E085C04E0D8900732082A89
:101F7000F9D70FA403D0076C07AEEAD712000F6A97
:101F800046EC10F00FB6C9EF0FF00FA20ED00FB451
:101F900005D07F0E076EFF0E066E1FD0800E076EF7
:101FA000066A1BD0076A066A18D00FB0FBD78F0EDF
:101FB0000860EDD77E0E0864F5D78E0E085C05E04C
:101FC000D89007320632082AF8D70FA406D0066C3C
:101FD000071EE86A072207AEE5D712007F0E086EDB
:101FE000FF0E076E066E056E12007F0E0FBEFF0E0F
:101FF000086E02D07F0E086E800E076E066A056AB4
:10200000F3D70FAE04D0800E086E076AF7D7086AC0
:10201000076AF4D70150001013101210F8E003BE45
:10202000F0D701BE0CD002500310EBE0D89012366E
:102030001336003601360206D8A00306F2D7035045
:10204000D4E10228D2E012AE11D07F0E121402E1C8
:1020500013A00CD0132AE86A0022012207E3D880DB
:10206000013200321332022A0228BFE00250C9E0D6
:1020700013C005F000C006F00134076E0230086E90
:102080000732089E0FBE088EF4EF0FF007360836B1
:1020900002E30F840F7E06E10F80086A076A066A72
:1020A000056A1200082803E0D88007321200D89091
:1020B000073202E10F8212000F8612000C360D3635
:1020C00002E30F8C0F7E06E10F880D6A0C6A0B6A23
:1020D0000A6A12000D2803E0D8800C321200D89052
:0820E0000C32EAE10F8A120044
:0820E8001201000200000008D3
:1020F000D8043F0002000102000109022900010189
:1021000000C032090400000203000000092111018F
:102110000001221D0007058103400001070501039E
:102120004000010403090434034D00690063007298
:10213000006F0063006800690070002000540065B3
:1021400000630068006E006F006C006F006700792C
:1021500000200049006E0063002E002E035300692A
:10216000006D0070006C00650020004800490044CC
:1021700000200044006500760069006300650020CF
:1021800000440065006D006F000600FF0901A10119
:1021900019012940150026FF007508954081021994
:0E21A0000129409102C0FA20232127215B2152
:0221AE002A0EF7
:1021B000F66E100EF76E000EF86E00010900F55075
:1021C000746F0900F550756F03E1746701D03DD05D
:1021D0000900F5506F6F0900F550706F0900F55058
:1021E000716F09000900F550E96E0900F550EA6EBB
:1021F000090009000900F550726F0900F550736F6E
:1022000009000900F6CF76F0F7CF77F0F8CF78F035
:102210006FC0F6FF70C0F7FF71C0F8FF0001725386
:1022200002E1735307E00900F550EE6E7207F8E221
:102230007307F9D776C0F6FF77C0F7FF78C0F8FFCD
:0C22400000017407000E755BBFD7120090
:04224C00000EF36E1F
:1022500000EE00F0080E01D81200EA6002D0EE6A2B
:0C226000FCD7F350E9601200EE6AFCD7D6
:04226C0013EE00F07D
:1022700023EE00F0F86A0F9CD7EC10F04FEC11F051
:08228000CDEC0CF0FBD71200BD
:08228800FF0EE350E84E1200C6
:0E229000000000D000D000D0E82EFAD71200D7
:02229E0012002C
:0422A000000000003A
:0122A4000039
:020000040030CA
:0100000024DB
:010001000EF0
:0100020039C4
:010003001EDE
:0100050001F9
:010006008178
:010008000FE8
:01000900C036
:01000A000FE6
:01000B00E014
:01000C000FE4
:01000D0040B2
:00000001FF
